{
  "_format": "hh-sol-artifact-1",
  "contractName": "ENSAddressBook",
  "sourceName": "contracts/ENSAddressBook.sol",
  "abi": [
    {
      "anonymous": false,
      "inputs": [
        {
          "indexed": false,
          "internalType": "string",
          "name": "message",
          "type": "string"
        }
      ],
      "name": "entryAdded",
      "type": "event"
    },
    {
      "anonymous": false,
      "inputs": [
        {
          "indexed": false,
          "internalType": "string",
          "name": "message",
          "type": "string"
        }
      ],
      "name": "noAddressExists",
      "type": "event"
    },
    {
      "anonymous": false,
      "inputs": [
        {
          "indexed": false,
          "internalType": "string",
          "name": "message",
          "type": "string"
        }
      ],
      "name": "preferredAddressUpdate",
      "type": "event"
    },
    {
      "inputs": [
        {
          "internalType": "string",
          "name": "_ens",
          "type": "string"
        },
        {
          "internalType": "uint256",
          "name": "preferred",
          "type": "uint256"
        }
      ],
      "name": "addEntry",
      "outputs": [],
      "stateMutability": "nonpayable",
      "type": "function"
    },
    {
      "inputs": [
        {
          "internalType": "string",
          "name": "",
          "type": "string"
        }
      ],
      "name": "booleanExists",
      "outputs": [
        {
          "internalType": "uint256",
          "name": "",
          "type": "uint256"
        }
      ],
      "stateMutability": "view",
      "type": "function"
    },
    {
      "inputs": [
        {
          "internalType": "string",
          "name": "",
          "type": "string"
        },
        {
          "internalType": "uint256",
          "name": "",
          "type": "uint256"
        }
      ],
      "name": "centralMap",
      "outputs": [
        {
          "internalType": "address",
          "name": "",
          "type": "address"
        }
      ],
      "stateMutability": "view",
      "type": "function"
    },
    {
      "inputs": [
        {
          "internalType": "string",
          "name": "_ens",
          "type": "string"
        }
      ],
      "name": "checkExistance",
      "outputs": [
        {
          "internalType": "bool",
          "name": "",
          "type": "bool"
        }
      ],
      "stateMutability": "view",
      "type": "function"
    },
    {
      "inputs": [
        {
          "internalType": "string",
          "name": "_ens",
          "type": "string"
        }
      ],
      "name": "crossContractENStoEOA",
      "outputs": [
        {
          "internalType": "address",
          "name": "",
          "type": "address"
        }
      ],
      "stateMutability": "view",
      "type": "function"
    },
    {
      "inputs": [
        {
          "internalType": "string",
          "name": "_ens",
          "type": "string"
        },
        {
          "internalType": "uint256",
          "name": "index",
          "type": "uint256"
        }
      ],
      "name": "getAddressOfKeyByIndex",
      "outputs": [
        {
          "internalType": "address",
          "name": "",
          "type": "address"
        }
      ],
      "stateMutability": "view",
      "type": "function"
    },
    {
      "inputs": [
        {
          "internalType": "string",
          "name": "_ens",
          "type": "string"
        }
      ],
      "name": "getAllAddresses",
      "outputs": [
        {
          "internalType": "address[]",
          "name": "",
          "type": "address[]"
        }
      ],
      "stateMutability": "view",
      "type": "function"
    },
    {
      "inputs": [
        {
          "internalType": "string",
          "name": "_ens",
          "type": "string"
        }
      ],
      "name": "getMostfitAddress",
      "outputs": [
        {
          "internalType": "address",
          "name": "",
          "type": "address"
        }
      ],
      "stateMutability": "view",
      "type": "function"
    },
    {
      "inputs": [
        {
          "internalType": "string",
          "name": "_ens",
          "type": "string"
        }
      ],
      "name": "giveSize",
      "outputs": [
        {
          "internalType": "uint256",
          "name": "",
          "type": "uint256"
        }
      ],
      "stateMutability": "view",
      "type": "function"
    },
    {
      "inputs": [
        {
          "internalType": "string",
          "name": "",
          "type": "string"
        }
      ],
      "name": "mostPreferredAddress",
      "outputs": [
        {
          "internalType": "address",
          "name": "",
          "type": "address"
        }
      ],
      "stateMutability": "view",
      "type": "function"
    }
  ],
  "bytecode": "0x608060405234801561001057600080fd5b50611169806100206000396000f3fe608060405234801561001057600080fd5b506004361061009e5760003560e01c806394a169331161006657806394a16933146101935780639bcba5dc146101c3578063b447ba82146101df578063dc1b84401461020f578063e30f87d11461023f5761009e565b80631bfb52c3146100a35780633a3f3d15146100d357806349dac93c14610103578063565517ce14610133578063725f3e4714610163575b600080fd5b6100bd60048036038101906100b89190610a79565b61026f565b6040516100ca9190610add565b60405180910390f35b6100ed60048036038101906100e89190610a79565b61029a565b6040516100fa9190610b39565b60405180910390f35b61011d60048036038101906101189190610a79565b610345565b60405161012a9190610c12565b60405180910390f35b61014d60048036038101906101489190610a79565b610454565b60405161015a9190610c4d565b60405180910390f35b61017d60048036038101906101789190610a79565b61047e565b60405161018a9190610c4d565b60405180910390f35b6101ad60048036038101906101a89190610a79565b6104ac565b6040516101ba9190610b39565b60405180910390f35b6101dd60048036038101906101d89190610c94565b610557565b005b6101f960048036038101906101f49190610a79565b6107ab565b6040516102069190610b39565b60405180910390f35b61022960048036038101906102249190610c94565b6107f4565b6040516102369190610b39565b60405180910390f35b61025960048036038101906102549190610c94565b610858565b6040516102669190610b39565b60405180910390f35b600060016002836040516102839190610d6a565b908152602001604051809103902054149050919050565b6000806000836040516102ad9190610d6a565b908152602001604051809103902080549050116102ff576040517f08c379a00000000000000000000000000000000000000000000000000000000081526004016102f690610e04565b60405180910390fd5b60018260405161030f9190610d6a565b908152602001604051809103902060009054906101000a900473ffffffffffffffffffffffffffffffffffffffff169050919050565b6060600080836040516103589190610d6a565b908152602001604051809103902080549050116103aa576040517f08c379a00000000000000000000000000000000000000000000000000000000081526004016103a190610e96565b60405180910390fd5b6000826040516103ba9190610d6a565b908152602001604051809103902080548060200260200160405190810160405280929190818152602001828054801561044857602002820191906000526020600020905b8160009054906101000a900473ffffffffffffffffffffffffffffffffffffffff1673ffffffffffffffffffffffffffffffffffffffff16815260200190600101908083116103fe575b50505050509050919050565b600080826040516104659190610d6a565b9081526020016040518091039020805490509050919050565b6002818051602081018201805184825260208301602085012081835280955050505050506000915090505481565b6000806000836040516104bf9190610d6a565b90815260200160405180910390208054905011610511576040517f08c379a000000000000000000000000000000000000000000000000000000000815260040161050890610f28565b60405180910390fd5b6001826040516105219190610d6a565b908152602001604051809103902060009054906101000a900473ffffffffffffffffffffffffffffffffffffffff169050919050565b600033905060005b60008460405161056f9190610d6a565b908152602001604051809103902080549050811015610630576000846040516105989190610d6a565b908152602001604051809103902081815481106105b8576105b7610f48565b5b9060005260206000200160009054906101000a900473ffffffffffffffffffffffffffffffffffffffff1673ffffffffffffffffffffffffffffffffffffffff168273ffffffffffffffffffffffffffffffffffffffff16141561061d5750506107a7565b808061062890610fa6565b91505061055f565b506000836040516106419190610d6a565b9081526020016040518091039020819080600181540180825580915050600190039060005260206000200160009091909190916101000a81548173ffffffffffffffffffffffffffffffffffffffff021916908373ffffffffffffffffffffffffffffffffffffffff160217905550600182141561074c57806001846040516106ca9190610d6a565b908152602001604051809103902060006101000a81548173ffffffffffffffffffffffffffffffffffffffff021916908373ffffffffffffffffffffffffffffffffffffffff1602179055507f0b863eacfd3746a20d61917b725f38eb94873c5c7699f04e6ea7fa4c7acae6406040516107439061103b565b60405180910390a15b600160028460405161075e9190610d6a565b9081526020016040518091039020819055507f24f91fb8825e5b7ce44212f6176459327cd12a9999c3a7b881449ab7372269d560405161079d906110a7565b60405180910390a1505b5050565b6001818051602081018201805184825260208301602085012081835280955050505050506000915054906101000a900473ffffffffffffffffffffffffffffffffffffffff1681565b600082805160208101820180518482526020830160208501208183528095505050505050818154811061082657600080fd5b906000526020600020016000915091509054906101000a900473ffffffffffffffffffffffffffffffffffffffff1681565b600080836040516108699190610d6a565b90815260200160405180910390208054905082106108bc576040517f08c379a00000000000000000000000000000000000000000000000000000000081526004016108b390611113565b60405180910390fd5b6000836040516108cc9190610d6a565b908152602001604051809103902082815481106108ec576108eb610f48565b5b9060005260206000200160009054906101000a900473ffffffffffffffffffffffffffffffffffffffff16905092915050565b6000604051905090565b600080fd5b600080fd5b600080fd5b600080fd5b6000601f19601f8301169050919050565b7f4e487b7100000000000000000000000000000000000000000000000000000000600052604160045260246000fd5b6109868261093d565b810181811067ffffffffffffffff821117156109a5576109a461094e565b5b80604052505050565b60006109b861091f565b90506109c4828261097d565b919050565b600067ffffffffffffffff8211156109e4576109e361094e565b5b6109ed8261093d565b9050602081019050919050565b82818337600083830152505050565b6000610a1c610a17846109c9565b6109ae565b905082815260208101848484011115610a3857610a37610938565b5b610a438482856109fa565b509392505050565b600082601f830112610a6057610a5f610933565b5b8135610a70848260208601610a09565b91505092915050565b600060208284031215610a8f57610a8e610929565b5b600082013567ffffffffffffffff811115610aad57610aac61092e565b5b610ab984828501610a4b565b91505092915050565b60008115159050919050565b610ad781610ac2565b82525050565b6000602082019050610af26000830184610ace565b92915050565b600073ffffffffffffffffffffffffffffffffffffffff82169050919050565b6000610b2382610af8565b9050919050565b610b3381610b18565b82525050565b6000602082019050610b4e6000830184610b2a565b92915050565b600081519050919050565b600082825260208201905092915050565b6000819050602082019050919050565b610b8981610b18565b82525050565b6000610b9b8383610b80565b60208301905092915050565b6000602082019050919050565b6000610bbf82610b54565b610bc98185610b5f565b9350610bd483610b70565b8060005b83811015610c05578151610bec8882610b8f565b9750610bf783610ba7565b925050600181019050610bd8565b5085935050505092915050565b60006020820190508181036000830152610c2c8184610bb4565b905092915050565b6000819050919050565b610c4781610c34565b82525050565b6000602082019050610c626000830184610c3e565b92915050565b610c7181610c34565b8114610c7c57600080fd5b50565b600081359050610c8e81610c68565b92915050565b60008060408385031215610cab57610caa610929565b5b600083013567ffffffffffffffff811115610cc957610cc861092e565b5b610cd585828601610a4b565b9250506020610ce685828601610c7f565b9150509250929050565b600081519050919050565b600081905092915050565b60005b83811015610d24578082015181840152602081019050610d09565b83811115610d33576000848401525b50505050565b6000610d4482610cf0565b610d4e8185610cfb565b9350610d5e818560208601610d06565b80840191505092915050565b6000610d768284610d39565b915081905092915050565b600082825260208201905092915050565b7f4e6f20616464726573732065786973747320666f722074686520636f7272657360008201527f706f6e64696e6720454e53000000000000000000000000000000000000000000602082015250565b6000610dee602b83610d81565b9150610df982610d92565b604082019050919050565b60006020820190508181036000830152610e1d81610de1565b9050919050565b7f4e6f20616464726573732065786973747320666f722074686520676976656e2060008201527f454e530000000000000000000000000000000000000000000000000000000000602082015250565b6000610e80602383610d81565b9150610e8b82610e24565b604082019050919050565b60006020820190508181036000830152610eaf81610e73565b9050919050565b7f4e6f2061646472657373206973207265676973746572656420666f722074686560008201527f20676976656e20454e5300000000000000000000000000000000000000000000602082015250565b6000610f12602a83610d81565b9150610f1d82610eb6565b604082019050919050565b60006020820190508181036000830152610f4181610f05565b9050919050565b7f4e487b7100000000000000000000000000000000000000000000000000000000600052603260045260246000fd5b7f4e487b7100000000000000000000000000000000000000000000000000000000600052601160045260246000fd5b6000610fb182610c34565b91507fffffffffffffffffffffffffffffffffffffffffffffffffffffffffffffffff821415610fe457610fe3610f77565b5b600182019050919050565b7f50726566657272656420454f4120416464726573732055706461746564000000600082015250565b6000611025601d83610d81565b915061103082610fef565b602082019050919050565b6000602082019050818103600083015261105481611018565b9050919050565b7f456e74727920416464656420746f2074686520676976656e20454e5300000000600082015250565b6000611091601c83610d81565b915061109c8261105b565b602082019050919050565b600060208201905081810360008301526110c081611084565b9050919050565b7f4d656d6f7279206f7574206f6620626f756e6420616363657373000000000000600082015250565b60006110fd601a83610d81565b9150611108826110c7565b602082019050919050565b6000602082019050818103600083015261112c816110f0565b905091905056fea26469706673582212209a37ced7748dca585ebbaa20593c71093e62882c63b2a6ebe09bbfd7da1fb7e664736f6c63430008090033",
  "linkReferences": {},
  "deployedLinkReferences": {}
}